:100000000C94D5000C94F2000C94F2000C94F200C5
:100010000C94F2000C94F2000C94F2000C94F20098
:100020000C94F2000C94F2000C94F2000C94F20088
:100030000C94F2000C94F2000C94F2000C94F20078
:100040000C94F2000C94F2000C94F2000C94F20068
:100050000C94F200140102014D010B014D011D0130
:1000600026014D014D014D014D014D014D014D0147
:100070004D014D014D014D014D0129014D014D0134
:100080004D014D014D012F01230305030703090312
:100090000B030D030F0311031303150317031903B8
:1000A0001B031D031F0321036E616E00696E660052
:1000B00000407A10F35A00A0724E18090010A5D41F
:1000C000E80000E87648170000E40B54020000CA7C
:1000D0009A3B000000E1F5050000809698000000C2
:1000E00040420F000000A086010000001027000021
:1000F0000000E803000000006400000000000A00A7
:10010000000000000100000000002C76D888DC67A9
:100110004F0823DFC1DFAE59E1B1B796E5E3E45301
:10012000C63AE651997696E8E6C28426EB898C9B1E
:1001300062ED407C6FFCEFBC9C9F40F2BAA56FA5BE
:10014000F490055A2AF75C936B6CF9676DC11BFC40
:10015000E0E40D47FEF520E6B500D0ED902E03005B
:10016000943577050080841E080000204E0A0000A8
:1001700000C80C333333330F986E12831141EF8D67
:100180002114893BE65516CFFEE6DB18D1844B38A7
:100190001BF77C1D901DA4BBE424203284725E22D8
:1001A0008100C9F124ECA1E53D2711241FBECFE554
:1001B000D4E0DEBFCDBF10E0A0E6B0E0E2E5F5E1BF
:1001C00002C005900D92AC38B107D9F720E0ACE839
:1001D000B0E001C01D92AB3AB207E1F70E94FC0308
:1001E0000C94A70A0C940000E091A2008E2F90E0DE
:1001F000FC01BA97EA31F10508F04FC0E65DFF4F08
:100200000C94A6081092A20081E08093A1008BE2DA
:100210008093A00008951092A20082E08093A10034
:100220008DE28093A00008951092A20083E0809355
:10023000A10088E78093A00008951092A20084E0B6
:100240008093A1008FE28093A00008951092A200F5
:1002500008951092A20085E08093A1000895109265
:10026000A7001092A8001092A9001092AA00109264
:10027000A3001092A4001092A5001092A600109264
:100280009C0010929D0010929E0010929F00109270
:10029000A1001092A2000E94F8030895CF92DF926D
:1002A000EF92FF920F931F938091A100811146C09E
:1002B0008091A7009091A800A091A900B091AA00F8
:1002C000880F991FAA1FBB1FAC01BD01440F551F0A
:1002D000661F771F440F551F661F771F840F951FDA
:1002E000A61FB71F2091A200820F911DA11DB11D55
:1002F0008093A7009093A800A093A900B093AA00B0
:10030000BF93AF939F938F9386E690E09F938F93D5
:100310008CE890E09F938F930E94270A4CE850E06E
:1003200060E080E00E94ED030DB71EB7085F1F4F2D
:100330000FB6F8941EBF0FBE0DBF1BC19FEF980FE5
:10034000943008F056C08091A3009091A400A09131
:10035000A500B091A600880F991FAA1FBB1FAC0172
:10036000BD01440F551F661F771F440F551F661FA1
:10037000771F840F951FA61FB71F2091A200820F21
:10038000911DA11DB11D8093A3009093A400A09383
:10039000A500B093A600BF93AF939F938F938091D6
:1003A000A0001F928F938091AA008F938091A90043
:1003B0008F938091A8008F938091A7008F9380E600
:1003C00090E09F938F938CE890E09F938F930E948F
:1003D000270A4CE850E060E080E00E94ED032DB772
:1003E0003EB7225F3F4F0FB6F8943EBF0FBE2DBF02
:1003F000C0C0853009F0BDC08091A0008D3271F180
:1004000018F48B3241F08CC08F3209F465C0883704
:1004100009F445C085C04091A7005091A8006091A3
:10042000A9007091AA008091A3009091A400A091CE
:10043000A500B091A6008A019B01080F191F2A1F71
:100440003B1FC901B8010E948B0460939C0070930C
:100450009D0080939E0090939F0062C08091A700B2
:100460009091A800A091A900B091AA00C090A3000B
:10047000D090A400E090A500F090A600BC01CD01B2
:100480006C197D098E099F090E948B0460939C0062
:1004900070939D0080939E0090939F0041C0209197
:1004A000A7003091A8004091A9005091AA00609146
:1004B000A3007091A4008091A5009091A6000E94D5
:1004C00096080E948B0460939C0070939D0080931B
:1004D0009E0090939F0024C06091A7007091A80097
:1004E0008091A9009091AA000E948B046B017C016D
:1004F0006091A3007091A4008091A5009091A60046
:100500000E948B049B01AC01C701B6010E94190433
:1005100060939C0070939D0080939E0090939F0039
:1005200080919F008F9380919E008F9380919D007A
:100530008F9380919C008F938BE690E09F938F9395
:100540008CE890E09F938F930E94270A4CE850E03C
:1005500060E081E00E94ED032DB73EB7285F3F4F7A
:100560000FB6F8943EBF0FBE2DBF0E94D602833453
:10057000E1F71F910F91FF90EF90DF90CF900895DA
:100580000E94D6028093A200882331F00E94F400DA
:100590000E944E011092A2002FE986E891E02150BE
:1005A00080409040E1F700C00000EACFE0E1F0E0D9
:1005B00060E070E0862F9F01062E02C0220F331FDD
:1005C0000A94E2F72ABB20952BBBC89B0EC041E0E2
:1005D00050E0942F29B330E0042E02C035952795C2
:1005E0000A94E2F720FD31C001C090E08F5F990FBF
:1005F000990F890F482F50E0FA013197E031F1054A
:1006000088F5EC5BFF4F0C94A60888E0089589E01C
:1006100008958FE2089584E0089585E0089586E0C6
:1006200008958AE2089581E0089582E0089583E0C4
:1006300008958DE2089583E4089580E308958DE39D
:1006400008958BE2089587E008954F5F5F4F44302F
:10065000510509F0BECF6F5F7F4F6430710509F01F
:10066000A9CFA6CF0895C198C298E9EFF0E03197DD
:10067000F1F700C00000C39AE9EFF0E03197F1F71D
:1006800000C0000092B3907F282F22952F70922BEC
:1006900092BBE9EFF0E03197F1F700C00000C3989A
:1006A000E9EFF0E03197F1F700C00000C39AE9EFFD
:1006B000F0E03197F1F700C0000092B3907F8F70A7
:1006C000892B82BB89EF90E00197F1F700C0000011
:1006D000C398E9EFF0E03197F1F700C0000008950A
:1006E00087B38E6087BB81B38F6081BB82E00E943D
:1006F000330388E20E9433038CE00E94330381E0DD
:100700000E9433030895C19AC298E9EFF0E031974F
:10071000F1F700C00000C39AE9EFF0E03197F1F77C
:1007200000C0000092B3907F282F22952F70922B4B
:1007300092BBE9EFF0E03197F1F700C00000C398F9
:10074000E9EFF0E03197F1F700C00000C39AE9EF5C
:10075000F0E03197F1F700C0000092B3907F8F7006
:10076000892B82BB89EF90E00197F1F700C0000070
:10077000C398E9EFF0E03197F1F700C00000089569
:100780000F931F93CF93FC018081882359F08F0131
:10079000C0E00E948303CF5FF801EC0FF11D808160
:1007A0008111F7CFCF911F910F910895813041F0C2
:1007B00028F0823041F0833049F00AC0962F08C0FB
:1007C00090E4960F05C090E1960F02C090E5960F59
:1007D000892F80680E9433030895CF93DF93EA0145
:1007E0000E94D603CE010E94C003DF91CF910895ED
:1007F00081E00E94330308950E94700341E750E0B6
:1008000060E080E00E94ED034CE750E060E081E0B2
:100810000E94ED0383ED90E30197F1F700C0000023
:100820000E94D6028334E1F70E94F8030E94C002BE
:10083000F7CF0E942D040C94DF040E94D80458F0D6
:100840000E94D10440F029F45F3F29F00C94C804C1
:1008500051110C9413050C94CE040E94F00468F31B
:100860009923B1F3552391F3951B550BBB27AA2769
:1008700062177307840738F09F5F5F4F220F331FA3
:10088000441FAA1FA9F335D00E2E3AF0E0E832D06B
:1008900091505040E695001CCAF72BD0FE2F29D06E
:1008A000660F771F881FBB1F261737074807AB0740
:1008B000B0E809F0BB0B802DBF01FF2793585F4FB5
:1008C0003AF09E3F510578F00C94C8040C9413053F
:1008D0005F3FE4F3983ED4F3869577956795B79597
:1008E000F7959F5FC9F7880F911D9695879597F9A2
:1008F0000895E1E0660F771F881FBB1F621773071B
:100900008407BA0720F0621B730B840BBA0BEE1F2F
:1009100088F7E0950895E89409C097FB3EF4909518
:100920008095709561957F4F8F4F9F4F9923A9F0C8
:10093000F92F96E9BB279395F69587957795679557
:10094000B795F111F8CFFAF4BB0F11F460FF1BC09B
:100950006F5F7F4F8F4F9F4F16C0882311F096E92E
:1009600011C0772321F09EE8872F762F05C06623DC
:1009700071F096E8862F70E060E02AF09A95660F95
:10098000771F881FDAF7880F9695879597F908954E
:1009900097F99F6780E870E060E008959FEF80EC32
:1009A000089500240A9416161706180609060895D5
:1009B00000240A9412161306140605060895092E3B
:1009C0000394000C11F4882352F0BB0F40F4BF2BAA
:1009D00011F460FF04C06F5F7F4F8F4F9F4F0895EA
:1009E00057FD9058440F551F59F05F3F71F04795E0
:1009F000880F97FB991F61F09F3F79F087950895C5
:100A0000121613061406551FF2CF4695F1DF08C0E3
:100A1000161617061806991FF1CF86957105610500
:100A200008940895E894BB2766277727CB0197F9A8
:100A30000895A0E1B0E0EFE1F5E00C94B7087C0187
:100A40001B016A01FC0117821682838181FF44C366
:100A50009E012F5F3F4F3901F7019381F10193FD13
:100A6000859193FF81911F01882309F431C3853259
:100A700039F493FD859193FF81911F01853239F4FB
:100A8000B70190E00E94EB0956016501E5CF10E047
:100A9000512C912CFFE1F915D8F08B3279F038F414
:100AA000803279F08332A1F4F92DF0612EC08D32BD
:100AB00061F0803369F4292D21602DC0392D326019
:100AC000932E892D8460982E2AC0E92DE86015C0E8
:100AD00097FC2DC020ED280F2A3088F496FE06C022
:100AE0003AE0139F200D1124122F19C08AE0589E5E
:100AF000200D1124522EE92DE0629E2E10C08E3260
:100B000031F496FCE5C2F92DF0649F2E08C08C36B6
:100B100021F4292D2068922E02C0883641F4F1017B
:100B200093FD859193FF81911F018111B3CF9BEBC1
:100B3000980F933020F4992D9061805E07C09BE957
:100B4000980F933008F066C1992D9F7E96FF16E0AE
:100B50009F73992E853619F49064992E08C08636B5
:100B600021F4392F3068932E02C01111115097FED5
:100B700007C01C3350F444244394410E27E00BC0BB
:100B8000183038F027E017E005C027E09CE3492E35
:100B900002C0212F412C560184E0A80EB11CF601A1
:100BA0006081718182819381042DA3010E94FD08DF
:100BB0006C01F981FC87F0FF02C0F3FF06C091FCD5
:100BC00006C092FE06C000E205C00DE203C00BE2C3
:100BD00001C000E08C858C7019F001115AC29BC2D3
:100BE00097FE10C04C0CFC85F4FF04C08A81813351
:100BF00009F44A94141474F528E0241578F588E073
:100C0000482E2CC096FC2AC0812F90E08C159D05A3
:100C10009CF03CEFC3163FEFD30674F0892D80683B
:100C2000982E0AC0E2E0F0E0EC0FFD1FE10FF11D8D
:100C30008081803319F411501111F4CF97FE0EC04A
:100C400044244394410E812F90E0C816D9062CF419
:100C50001C1904C04424439401C010E097FE06C050
:100C60001C141D0434F4C601019605C085E090E013
:100C700002C081E090E001110196112331F0212F93
:100C800030E02F5F3F4F820F931F252D30E08217FA
:100C9000930714F4581A01C0512C892D897049F416
:100CA000552039F0B70180E290E00E94EB095A9498
:100CB000F7CF002329F0B701802F90E00E94EB09C5
:100CC00093FC09C0552039F0B70180E390E00E9401
:100CD000EB095A94F7CF97FE4CC04601D7FE02C0ED
:100CE000812C912CC60188199909F301E80FF91F8D
:100CF000FE87ED87960124193109388B2F87012F44
:100D000010E01195019511093FEF8316930629F420
:100D1000B7018EE290E00E94EB09C814D9044CF0B0
:100D20008F8598898815990524F4ED85FE85818144
:100D300001C080E3F1E08F1A91082D853E852F5F79
:100D40003F4F3E872D87801691062CF0B70190E02B
:100D50000E94EB09D9CFC814D90441F49A81963383
:100D600020F4953319F43C8534FF81E3B70190E01A
:100D70004EC08A81813319F09C859F7E9C87B70184
:100D800090E00E94EB09111105C094FC18C085E6A3
:100D900090E017C0B7018EE290E00E94EB091E5F61
:100DA00082E001E0080FF301E80FF11D8081B70137
:100DB00090E00E94EB09802F0113F3CFE6CF85E48A
:100DC00090E0B7010E94EB09D7FC06C0C114D10422
:100DD00041F4EC85E4FF05C0D194C194D1088DE2C3
:100DE00001C08BE2B70190E00E94EB0980E32AE0AA
:100DF000C216D1042CF08F5FFAE0CF1AD108F7CFDA
:100E0000B70190E00E94EB09B701C601C0960E94AD
:100E1000EB0954C1833631F0833779F0833509F01B
:100E200056C020C0560132E0A30EB11CF6018081ED
:100E3000898301E010E0630112C05601F2E0AF0EB9
:100E4000B11CF601C080D18096FE03C0612F70E016
:100E500002C06FEF7FEFC6010E94E0098C01F92DFF
:100E6000FF7714C0560122E0A20EB11CF601C0802B
:100E7000D18096FE03C0612F70E002C06FEF7FEF5C
:100E8000C6010E94D5098C01F92DF0689F2EF3FD53
:100E90001AC0852D90E008171907A8F4B70180E261
:100EA00090E00E94EB095A94F4CFF60197FC8591EB
:100EB00097FE81916F01B70190E00E94EB095110FC
:100EC0005A94015011090115110579F7F7C08436BC
:100ED00011F0893661F5560197FE09C024E0A20E93
:100EE000B11CF60160817181828193810AC0F2E0B8
:100EF000AF0EB11CF60160817181072E000C880BCA
:100F0000990BF92DFF769F2E97FF09C0909580953C
:100F1000709561957F4F8F4F9F4FF0689F2E2AE00D
:100F200030E0A3010E94490AC82EC6183FC0092D0F
:100F3000853721F40F7E2AE030E01DC0097F8F360F
:100F400091F018F4883559F0C3C0803719F088370C
:100F500011F0BEC0006104FF09C0046007C094FE28
:100F600008C0066006C028E030E005C020E130E09F
:100F700002C020E132E0560107FF09C084E0A80E5C
:100F8000B11CF601608171818281938108C0F2E019
:100F9000AF0EB11CF6016081718180E090E0A30189
:100FA0000E94490AC82EC6180F77902E96FE0BC0D5
:100FB000092D0E7FC11650F494FE0AC092FC08C0A1
:100FC000092D0E7E05C0DC2C092D03C0DC2C01C0D0
:100FD000D12E04FF0DC0FE01EC0DF11D8081803388
:100FE00011F4097E09C002FF06C0D394D39404C053
:100FF000802F867809F0D39403FD11C000FF06C04E
:101000001C2DD51480F4150D1D190DC0D51458F4E0
:10101000B70180E290E00E94EB09D394F7CFD5149A
:1010200010F45D1801C0512C04FF10C0B70180E31B
:1010300090E00E94EB0902FF17C001FD03C088E7A2
:1010400090E002C088E590E0B7010CC0802F867860
:1010500059F001FF02C08BE201C080E207FD8DE282
:10106000B70190E00E94EB09C11638F4B70180E3A4
:1010700090E00E94EB091150F7CFCA94F301EC0DF8
:10108000F11D8081B70190E00E94EB09C110F5CFFE
:1010900015C0F4E0F51560F584E0581A93FE1FC002
:1010A000011127C02C8523FF2AC008EA10E0392D42
:1010B0003071932EF8018491811124C0552009F4D8
:1010C000E4CCB70180E290E00E94EB095A94F6CF9D
:1010D000F7018681978126C08FEF9FEF23C0B7016C
:1010E00080E290E00E94EB095A945110F8CFD8CFDB
:1010F000512CB701802F90E00E94EB09D3CF0CEA6E
:1011000010E0D5CF91108052B70190E00E94EB091A
:101110000F5F1F4FCFCF23E0251510F483E0BDCF25
:10112000512CC0CF6096E2E10C94D308DB018F9381
:101130009F930E94AC08BF91AF91A29F800D911D1B
:10114000A39F900DB29F900D11240895EE0FFF1FE5
:101150000590F491E02D09940E94EE08A59F900D52
:10116000B49F900DA49F800D911D112408952F927E
:101170003F924F925F926F927F928F929F92AF9227
:10118000BF92CF92DF92EF92FF920F931F93CF9374
:10119000DF93CDB7DEB7CA1BDB0B0FB6F894DEBF0B
:1011A0000FBECDBF09942A88398848885F846E8431
:1011B0007D848C849B84AA84B984C884DF80EE807B
:1011C000FD800C811B81AA81B981CE0FD11D0FB684
:1011D000F894DEBF0FBECDBFED010895A29FB00110
:1011E000B39FC001A39F700D811D1124911DB29F5B
:1011F000700D811D1124911D0895283008F027E0FD
:101200003327DA01990F311D87FD91600096610542
:10121000710539F432602E5F3D9330E32A95E1F792
:1012200008959F3F30F080387105610509F03C5FFB
:101230003C5F3D93913008F08068911DDF93CF9320
:101240001F930F93FF92EF92192F987F9695E92F96
:1012500096959695E90FFF27E65FFE4F992733276E
:10126000EE24FF24A701E70105900894079428F4D1
:10127000360FE71EF81E491F511D660F771F881F86
:10128000991F0694A1F70590079428F4E70EF81E1D
:10129000491F561FC11D770F881F991F661F06948F
:1012A000A1F70590079428F4F80E491F561FC71F91
:1012B000D11D880F991F661F771F0694A1F705900F
:1012C000079420F4490F561FC71FD81F990F661F98
:1012D000771F881F0694A9F784911095177041F025
:1012E000D695C79557954795F794E7941A95C1F702
:1012F000E0EBF0E06894159015913591659195912A
:1013000005907FE27395E118F10A430B560BC90B68
:10131000D009C0F7E10CF11E431F561FC91FD01D95
:101320007EF4703311F48A95E6CFE894015030F0E2
:10133000080F0AF40027021708F4202F2395022F24
:101340007A3328F079E37D932A95E9F710C07D93ED
:101350002A9589F60694979567953795179517946A
:10136000E118F10A430B560BC90BD00998F02395ED
:101370007E9173957A3308F070E37C932013B8F76D
:101380007E9170617D9330F0839571E37D9370E37E
:101390002A95E1F71124EF90FF900F911F91CF91C3
:1013A000DF91992787FD90950895FC010590615084
:1013B00070400110D8F7809590958E0F9F1F08956B
:1013C000FC016150704001900110D8F78095909514
:1013D0008E0F9F1F08950F931F93CF93DF93FB01F1
:1013E000238121FD03C08FEF9FEF2CC022FF16C089
:1013F00046815781248135814217530744F4A081E7
:10140000B1819D012F5F3F4F318320838C932681D3
:1014100037812F5F3F4F3783268314C08B01EC0148
:10142000FB010084F185E02D0995892BE1F6D801B7
:1014300016968D919C911797019617969C938E9373
:101440001697CE01DF91CF911F910F910895AEE0D5
:10145000B0E0EDE2FAE00C94C5080D891E8986E043
:101460008C831A8309838FEF9FE79E838D83AE0160
:10147000475E5F4F6F89788DCE0101960E941905F6
:10148000EF81F885E00FF11F10822E96E4E00C94B6
:10149000E108FA01AA27283051F1203181F1E894BE
:1014A0006F936E7F6E5F7F4F8F4F9F4FAF4FB1E057
:1014B0003ED0B4E03CD0670F781F891F9A1FA11D52
:1014C000680F791F8A1F911DA11D6A0F711D811D53
:1014D000911DA11D20D009F468943F912AE0269F18
:1014E00011243019305D3193DEF6CF010895462F77
:1014F0004770405D4193B3E00FD0C9F7F6CF462F58
:101500004F70405D4A3318F0495D31FD40524193C0
:1015100002D0A9F7EACFB4E0A6959795879577957D
:101520006795BA95C9F700976105710508959B0104
:10153000AC010A2E06945795479537952795BA958D
:10154000C9F7620F731F841F951FA01D0895F8949B
:02155000FFCFCB
:1015520025316C69256325316C69003D252E326683
:101562000043616C63756C61746F7200504C45414D
:0C1572005345205052455353204F4E006B
:00000001FF
